{
  "contractName": "Remittance",
  "abi": [
    {
      "constant": false,
      "inputs": [],
      "name": "resume",
      "outputs": [],
      "payable": false,
      "stateMutability": "nonpayable",
      "type": "function",
      "signature": "0x046f7da2"
    },
    {
      "constant": true,
      "inputs": [],
      "name": "getRunning",
      "outputs": [
        {
          "name": "",
          "type": "bool"
        }
      ],
      "payable": false,
      "stateMutability": "view",
      "type": "function",
      "signature": "0x3924f089"
    },
    {
      "constant": true,
      "inputs": [
        {
          "name": "",
          "type": "bytes32"
        }
      ],
      "name": "deposits",
      "outputs": [
        {
          "name": "remitter",
          "type": "address"
        },
        {
          "name": "puzzle",
          "type": "bytes32"
        },
        {
          "name": "expires",
          "type": "uint256"
        },
        {
          "name": "value",
          "type": "uint256"
        }
      ],
      "payable": false,
      "stateMutability": "view",
      "type": "function",
      "signature": "0x3d4dff7b"
    },
    {
      "constant": false,
      "inputs": [],
      "name": "kill",
      "outputs": [],
      "payable": false,
      "stateMutability": "nonpayable",
      "type": "function",
      "signature": "0x41c0e1b5"
    },
    {
      "constant": true,
      "inputs": [],
      "name": "depositFee",
      "outputs": [
        {
          "name": "",
          "type": "uint256"
        }
      ],
      "payable": false,
      "stateMutability": "view",
      "type": "function",
      "signature": "0x67a52793"
    },
    {
      "constant": false,
      "inputs": [],
      "name": "pause",
      "outputs": [],
      "payable": false,
      "stateMutability": "nonpayable",
      "type": "function",
      "signature": "0x8456cb59"
    },
    {
      "constant": true,
      "inputs": [],
      "name": "getOwner",
      "outputs": [
        {
          "name": "",
          "type": "address"
        }
      ],
      "payable": false,
      "stateMutability": "view",
      "type": "function",
      "signature": "0x893d20e8"
    },
    {
      "constant": false,
      "inputs": [
        {
          "name": "newOwner",
          "type": "address"
        }
      ],
      "name": "changeOwner",
      "outputs": [
        {
          "name": "success",
          "type": "bool"
        }
      ],
      "payable": false,
      "stateMutability": "nonpayable",
      "type": "function",
      "signature": "0xa6f9dae1"
    },
    {
      "constant": false,
      "inputs": [
        {
          "name": "newRunning",
          "type": "bool"
        }
      ],
      "name": "setRunning",
      "outputs": [],
      "payable": false,
      "stateMutability": "nonpayable",
      "type": "function",
      "signature": "0xdfd200c5"
    },
    {
      "constant": true,
      "inputs": [
        {
          "name": "",
          "type": "address"
        }
      ],
      "name": "fees",
      "outputs": [
        {
          "name": "",
          "type": "uint256"
        }
      ],
      "payable": false,
      "stateMutability": "view",
      "type": "function",
      "signature": "0xfaaebd21"
    },
    {
      "inputs": [],
      "payable": false,
      "stateMutability": "nonpayable",
      "type": "constructor",
      "signature": "constructor"
    },
    {
      "anonymous": false,
      "inputs": [
        {
          "indexed": true,
          "name": "remiter",
          "type": "address"
        },
        {
          "indexed": false,
          "name": "puzzle",
          "type": "bytes32"
        },
        {
          "indexed": true,
          "name": "expires",
          "type": "uint256"
        },
        {
          "indexed": false,
          "name": "value",
          "type": "uint256"
        },
        {
          "indexed": false,
          "name": "depositFee",
          "type": "uint256"
        }
      ],
      "name": "LogDeposit",
      "type": "event",
      "signature": "0x2e2761f646b354a5faab29bd1678d8b4d7c99f316c85f66d8487272a9c186a3c"
    },
    {
      "anonymous": false,
      "inputs": [
        {
          "indexed": false,
          "name": "puzzle",
          "type": "bytes32"
        },
        {
          "indexed": true,
          "name": "remittant",
          "type": "address"
        },
        {
          "indexed": false,
          "name": "amount",
          "type": "uint256"
        }
      ],
      "name": "LogTransfer",
      "type": "event",
      "signature": "0x928a443b47fd5062745dda8e9311b69d2a5ca6599d53d9d42628de37f0088776"
    },
    {
      "anonymous": false,
      "inputs": [
        {
          "indexed": true,
          "name": "remitter",
          "type": "address"
        },
        {
          "indexed": false,
          "name": "amount",
          "type": "uint256"
        }
      ],
      "name": "LogWithdraw",
      "type": "event",
      "signature": "0x4ce7033d118120e254016dccf195288400b28fc8936425acd5f17ce2df3ab708"
    },
    {
      "anonymous": false,
      "inputs": [
        {
          "indexed": true,
          "name": "remitter",
          "type": "address"
        },
        {
          "indexed": false,
          "name": "oldFee",
          "type": "uint256"
        },
        {
          "indexed": false,
          "name": "newFee",
          "type": "uint256"
        }
      ],
      "name": "LogDepositFee",
      "type": "event",
      "signature": "0xee603488a1c18cff9806662cf9e18d1868b9b5b66c1ef40eee52c0833cc2da18"
    },
    {
      "anonymous": false,
      "inputs": [
        {
          "indexed": false,
          "name": "oldRunning",
          "type": "bool"
        },
        {
          "indexed": false,
          "name": "newRunning",
          "type": "bool"
        }
      ],
      "name": "LogRunningChanged",
      "type": "event",
      "signature": "0x558114f08c3fa972f3c6f08ee953dad136365321ef1df7646cea5054146ef068"
    },
    {
      "anonymous": false,
      "inputs": [
        {
          "indexed": true,
          "name": "oldOwner",
          "type": "address"
        },
        {
          "indexed": true,
          "name": "newOwner",
          "type": "address"
        }
      ],
      "name": "LogOwnerChanged",
      "type": "event",
      "signature": "0xfcf23a92150d56e85e3a3d33b357493246e55783095eb6a733eb8439ffc752c8"
    },
    {
      "constant": true,
      "inputs": [
        {
          "name": "recipient",
          "type": "address"
        },
        {
          "name": "password1",
          "type": "bytes32"
        }
      ],
      "name": "createPuzzle",
      "outputs": [
        {
          "name": "",
          "type": "bytes32"
        }
      ],
      "payable": false,
      "stateMutability": "pure",
      "type": "function",
      "signature": "0xb6d7c1b8"
    },
    {
      "constant": false,
      "inputs": [
        {
          "name": "_depositFee",
          "type": "uint256"
        }
      ],
      "name": "setDepositFee",
      "outputs": [],
      "payable": false,
      "stateMutability": "nonpayable",
      "type": "function",
      "signature": "0x490ae210"
    },
    {
      "constant": true,
      "inputs": [
        {
          "name": "puzzle",
          "type": "bytes32"
        }
      ],
      "name": "isExpired",
      "outputs": [
        {
          "name": "",
          "type": "bool"
        }
      ],
      "payable": false,
      "stateMutability": "view",
      "type": "function",
      "signature": "0x6db2feb2"
    },
    {
      "constant": false,
      "inputs": [
        {
          "name": "puzzle",
          "type": "bytes32"
        },
        {
          "name": "timeout",
          "type": "uint256"
        }
      ],
      "name": "deposit",
      "outputs": [],
      "payable": true,
      "stateMutability": "payable",
      "type": "function",
      "signature": "0x1de26e16"
    },
    {
      "constant": false,
      "inputs": [
        {
          "name": "puzzle",
          "type": "bytes32"
        }
      ],
      "name": "remitterWithdraw",
      "outputs": [],
      "payable": false,
      "stateMutability": "nonpayable",
      "type": "function",
      "signature": "0x7fb76639"
    },
    {
      "constant": false,
      "inputs": [
        {
          "name": "puzzle",
          "type": "bytes32"
        },
        {
          "name": "_password1",
          "type": "bytes32"
        }
      ],
      "name": "withdraw",
      "outputs": [],
      "payable": false,
      "stateMutability": "nonpayable",
      "type": "function",
      "signature": "0x63615149"
    },
    {
      "constant": false,
      "inputs": [],
      "name": "withdrawDepositFees",
      "outputs": [],
      "payable": false,
      "stateMutability": "nonpayable",
      "type": "function",
      "signature": "0xaac0167b"
    }
  ],
  "bytecode": "0x608060405234801561001057600080fd5b506001336000806101000a81548173ffffffffffffffffffffffffffffffffffffffff021916908373ffffffffffffffffffffffffffffffffffffffff16021790555080600060146101000a81548160ff02191690831515021790555050611ca48061007d6000396000f3fe6080604052600436106100f1576000357c0100000000000000000000000000000000000000000000000000000000900463ffffffff168063046f7da2146100f65780631de26e161461010d5780633924f089146101455780633d4dff7b1461017457806341c0e1b514610204578063490ae2101461021b578063636151491461025657806367a527931461029b5780636db2feb2146102c65780637fb76639146103195780638456cb5914610354578063893d20e81461036b578063a6f9dae1146103c2578063aac0167b1461042b578063b6d7c1b814610442578063dfd200c5146104b1578063faaebd21146104ee575b600080fd5b34801561010257600080fd5b5061010b610553565b005b6101436004803603604081101561012357600080fd5b8101908080359060200190929190803590602001909291905050506105e4565b005b34801561015157600080fd5b5061015a6109d3565b604051808215151515815260200191505060405180910390f35b34801561018057600080fd5b506101ad6004803603602081101561019757600080fd5b81019080803590602001909291905050506109e9565b604051808573ffffffffffffffffffffffffffffffffffffffff1673ffffffffffffffffffffffffffffffffffffffff16815260200184815260200183815260200182815260200194505050505060405180910390f35b34801561021057600080fd5b50610219610a39565b005b34801561022757600080fd5b506102546004803603602081101561023e57600080fd5b8101908080359060200190929190505050610b9b565b005b34801561026257600080fd5b506102996004803603604081101561027957600080fd5b810190808035906020019092919080359060200190929190505050610d3b565b005b3480156102a757600080fd5b506102b0610feb565b6040518082815260200191505060405180910390f35b3480156102d257600080fd5b506102ff600480360360208110156102e957600080fd5b8101908080359060200190929190505050610ff1565b604051808215151515815260200191505060405180910390f35b34801561032557600080fd5b506103526004803603602081101561033c57600080fd5b81019080803590602001909291905050506110a9565b005b34801561036057600080fd5b5061036961133f565b005b34801561037757600080fd5b506103806113cf565b604051808273ffffffffffffffffffffffffffffffffffffffff1673ffffffffffffffffffffffffffffffffffffffff16815260200191505060405180910390f35b3480156103ce57600080fd5b50610411600480360360208110156103e557600080fd5b81019080803573ffffffffffffffffffffffffffffffffffffffff1690602001909291905050506113f8565b604051808215151515815260200191505060405180910390f35b34801561043757600080fd5b506104406116ec565b005b34801561044e57600080fd5b5061049b6004803603604081101561046557600080fd5b81019080803573ffffffffffffffffffffffffffffffffffffffff16906020019092919080359060200190929190505050611883565b6040518082815260200191505060405180910390f35b3480156104bd57600080fd5b506104ec600480360360208110156104d457600080fd5b81019080803515159060200190929190505050611a14565b005b3480156104fa57600080fd5b5061053d6004803603602081101561051157600080fd5b81019080803573ffffffffffffffffffffffffffffffffffffffff169060200190929190505050611b4b565b6040518082815260200191505060405180910390f35b600060149054906101000a900460ff161515156105d8576040517f08c379a000000000000000000000000000000000000000000000000000000000815260040180806020018281038252600d8152602001807f576520617265207061757365640000000000000000000000000000000000000081525060200191505060405180910390fd5b6105e26001611a14565b565b8160006003600083815260200190815260200160002060020154141515610673576040517f08c379a000000000000000000000000000000000000000000000000000000000815260040180806020018281038252600e8152602001807f4465706f7369742065786973747300000000000000000000000000000000000081525060200191505060405180910390fd5b6000341115156106eb576040517f08c379a00000000000000000000000000000000000000000000000000000000081526004018080602001828103825260198152602001807f4e65656420746f206465706f73697420736f6d657468696e670000000000000081525060200191505060405180910390fd5b6000821180156106fd57506224ea0082105b1515610771576040517f08c379a00000000000000000000000000000000000000000000000000000000081526004018080602001828103825260198152602001807f54696d656f7574206e6565647320746f2062652076616c69640000000000000081525060200191505060405180910390fd5b600083141515156107ea576040517f08c379a000000000000000000000000000000000000000000000000000000000815260040180806020018281038252600e8152602001807f496e76616c69642070757a7a6c6500000000000000000000000000000000000081525060200191505060405180910390fd5b60003490503460015410156108b55761080e60015434611b6390919063ffffffff16565b9050600061081a6113cf565b9050610870600154600260008473ffffffffffffffffffffffffffffffffffffffff1673ffffffffffffffffffffffffffffffffffffffff16815260200190815260200160002054611bee90919063ffffffff16565b600260008373ffffffffffffffffffffffffffffffffffffffff1673ffffffffffffffffffffffffffffffffffffffff16815260200190815260200160002081905550505b6080604051908101604052803373ffffffffffffffffffffffffffffffffffffffff1681526020018581526020014285018152602001828152506003600086815260200190815260200160002060008201518160000160006101000a81548173ffffffffffffffffffffffffffffffffffffffff021916908373ffffffffffffffffffffffffffffffffffffffff1602179055506020820151816001015560408201518160020155606082015181600301559050504283013373ffffffffffffffffffffffffffffffffffffffff167f2e2761f646b354a5faab29bd1678d8b4d7c99f316c85f66d8487272a9c186a3c868460015460405180848152602001838152602001828152602001935050505060405180910390a350505050565b60008060149054906101000a900460ff16905090565b60036020528060005260406000206000915090508060000160009054906101000a900473ffffffffffffffffffffffffffffffffffffffff16908060010154908060020154908060030154905084565b6000809054906101000a900473ffffffffffffffffffffffffffffffffffffffff1673ffffffffffffffffffffffffffffffffffffffff163373ffffffffffffffffffffffffffffffffffffffff16141515610afd576040517f08c379a00000000000000000000000000000000000000000000000000000000081526004018080602001828103825260198152602001807f4f776e6572207065726d697373696f6e2072657175697265640000000000000081525060200191505060405180910390fd5b600060149054906101000a900460ff16151515610b82576040517f08c379a000000000000000000000000000000000000000000000000000000000815260040180806020018281038252600d8152602001807f576520617265207061757365640000000000000000000000000000000000000081525060200191505060405180910390fd5b3373ffffffffffffffffffffffffffffffffffffffff16ff5b6000809054906101000a900473ffffffffffffffffffffffffffffffffffffffff1673ffffffffffffffffffffffffffffffffffffffff163373ffffffffffffffffffffffffffffffffffffffff16141515610c5f576040517f08c379a00000000000000000000000000000000000000000000000000000000081526004018080602001828103825260198152602001807f4f776e6572207065726d697373696f6e2072657175697265640000000000000081525060200191505060405180910390fd5b8060015414151515610cd9576040517f08c379a00000000000000000000000000000000000000000000000000000000081526004018080602001828103825260108152602001807f56616c7565732061726520657175616c0000000000000000000000000000000081525060200191505060405180910390fd5b3373ffffffffffffffffffffffffffffffffffffffff167fee603488a1c18cff9806662cf9e18d1868b9b5b66c1ef40eee52c0833cc2da1860015483604051808381526020018281526020019250505060405180910390a28060018190555050565b8160006003600083815260200190815260200160002060020154111515610dca576040517f08c379a000000000000000000000000000000000000000000000000000000000815260040180806020018281038252600f8152602001807f496e76616c6964206465706f736974000000000000000000000000000000000081525060200191505060405180910390fd5b600060036000858152602001908152602001600020600301549050600081111515610e5d576040517f08c379a00000000000000000000000000000000000000000000000000000000081526004018080602001828103825260148152602001807f4e6f2062616c616e636520617661696c61626c6500000000000000000000000081525060200191505060405180910390fd5b6003600085815260200190815260200160002060010154610e7e3385611883565b141515610ef3576040517f08c379a000000000000000000000000000000000000000000000000000000000815260040180806020018281038252600e8152602001807f496e76616c696420616e7377657200000000000000000000000000000000000081525060200191505060405180910390fd5b60036000858152602001908152602001600020600080820160006101000a81549073ffffffffffffffffffffffffffffffffffffffff021916905560018201600090556002820160009055600382016000905550503373ffffffffffffffffffffffffffffffffffffffff167f928a443b47fd5062745dda8e9311b69d2a5ca6599d53d9d42628de37f00887768583604051808381526020018281526020019250505060405180910390a23373ffffffffffffffffffffffffffffffffffffffff166108fc829081150290604051600060405180830381858888f19350505050158015610fe4573d6000803e3d6000fd5b5050505050565b60015481565b60008160006003600083815260200190815260200160002060020154111515611082576040517f08c379a000000000000000000000000000000000000000000000000000000000815260040180806020018281038252600f8152602001807f496e76616c6964206465706f736974000000000000000000000000000000000081525060200191505060405180910390fd5b60006003600085815260200190815260200160002090508060020154421192505050919050565b8060006003600083815260200190815260200160002060020154111515611138576040517f08c379a000000000000000000000000000000000000000000000000000000000815260040180806020018281038252600f8152602001807f496e76616c6964206465706f736974000000000000000000000000000000000081525060200191505060405180910390fd5b61114182610ff1565b15156111b5576040517f08c379a00000000000000000000000000000000000000000000000000000000081526004018080602001828103825260168152602001807f4465706f736974206973206e6f7420657870697265640000000000000000000081525060200191505060405180910390fd5b600060036000848152602001908152602001600020600301549050600081111515611248576040517f08c379a00000000000000000000000000000000000000000000000000000000081526004018080602001828103825260138152602001807f4e6f7468696e6720746f2077697468647261770000000000000000000000000081525060200191505060405180910390fd5b60036000848152602001908152602001600020600080820160006101000a81549073ffffffffffffffffffffffffffffffffffffffff021916905560018201600090556002820160009055600382016000905550503373ffffffffffffffffffffffffffffffffffffffff167f928a443b47fd5062745dda8e9311b69d2a5ca6599d53d9d42628de37f00887768483604051808381526020018281526020019250505060405180910390a23373ffffffffffffffffffffffffffffffffffffffff166108fc829081150290604051600060405180830381858888f19350505050158015611339573d6000803e3d6000fd5b50505050565b600060149054906101000a900460ff1615156113c3576040517f08c379a000000000000000000000000000000000000000000000000000000000815260040180806020018281038252600f8152602001807f576520686176652073746f70706564000000000000000000000000000000000081525060200191505060405180910390fd5b6113cd6000611a14565b565b60008060009054906101000a900473ffffffffffffffffffffffffffffffffffffffff16905090565b60008060009054906101000a900473ffffffffffffffffffffffffffffffffffffffff1673ffffffffffffffffffffffffffffffffffffffff163373ffffffffffffffffffffffffffffffffffffffff161415156114be576040517f08c379a00000000000000000000000000000000000000000000000000000000081526004018080602001828103825260198152602001807f4f776e6572207065726d697373696f6e2072657175697265640000000000000081525060200191505060405180910390fd5b600073ffffffffffffffffffffffffffffffffffffffff168273ffffffffffffffffffffffffffffffffffffffff1614151515611563576040517f08c379a00000000000000000000000000000000000000000000000000000000081526004018080602001828103825260108152602001807f496e76616c6964206e65774f776e65720000000000000000000000000000000081525060200191505060405180910390fd5b6000809054906101000a900473ffffffffffffffffffffffffffffffffffffffff1673ffffffffffffffffffffffffffffffffffffffff168273ffffffffffffffffffffffffffffffffffffffff1614151515611628576040517f08c379a000000000000000000000000000000000000000000000000000000000815260040180806020018281038252600a8152602001807f53616d65206f776e65720000000000000000000000000000000000000000000081525060200191505060405180910390fd5b8173ffffffffffffffffffffffffffffffffffffffff166000809054906101000a900473ffffffffffffffffffffffffffffffffffffffff1673ffffffffffffffffffffffffffffffffffffffff167ffcf23a92150d56e85e3a3d33b357493246e55783095eb6a733eb8439ffc752c860405160405180910390a3816000806101000a81548173ffffffffffffffffffffffffffffffffffffffff021916908373ffffffffffffffffffffffffffffffffffffffff16021790555060019050919050565b6000600260003373ffffffffffffffffffffffffffffffffffffffff1673ffffffffffffffffffffffffffffffffffffffff1681526020019081526020016000205490506000811115156117a8576040517f08c379a00000000000000000000000000000000000000000000000000000000081526004018080602001828103825260168152602001807f4e6f2062616c616e636520746f2077697468647261770000000000000000000081525060200191505060405180910390fd5b600260003373ffffffffffffffffffffffffffffffffffffffff1673ffffffffffffffffffffffffffffffffffffffff168152602001908152602001600020600090553373ffffffffffffffffffffffffffffffffffffffff167f4ce7033d118120e254016dccf195288400b28fc8936425acd5f17ce2df3ab708826040518082815260200191505060405180910390a23373ffffffffffffffffffffffffffffffffffffffff166108fc829081150290604051600060405180830381858888f1935050505015801561187f573d6000803e3d6000fd5b5050565b60008073ffffffffffffffffffffffffffffffffffffffff168373ffffffffffffffffffffffffffffffffffffffff1614151515611929576040517f08c379a000000000000000000000000000000000000000000000000000000000815260040180806020018281038252600f8152602001807f496e76616c69642061646472657373000000000000000000000000000000000081525060200191505060405180910390fd5b600082141515156119a2576040517f08c379a00000000000000000000000000000000000000000000000000000000081526004018080602001828103825260108152602001807f496e76616c69642070617373776f72640000000000000000000000000000000081525060200191505060405180910390fd5b8282604051602001808373ffffffffffffffffffffffffffffffffffffffff1673ffffffffffffffffffffffffffffffffffffffff166c010000000000000000000000000281526014018281526020019250505060405160208183030381529060405280519060200120905092915050565b6000809054906101000a900473ffffffffffffffffffffffffffffffffffffffff1673ffffffffffffffffffffffffffffffffffffffff163373ffffffffffffffffffffffffffffffffffffffff16141515611ad8576040517f08c379a00000000000000000000000000000000000000000000000000000000081526004018080602001828103825260198152602001807f4f776e6572207065726d697373696f6e2072657175697265640000000000000081525060200191505060405180910390fd5b7f558114f08c3fa972f3c6f08ee953dad136365321ef1df7646cea5054146ef068600060149054906101000a900460ff16826040518083151515158152602001821515151581526020019250505060405180910390a180600060146101000a81548160ff02191690831515021790555050565b60026020528060005260406000206000915090505481565b6000828211151515611bdd576040517f08c379a000000000000000000000000000000000000000000000000000000000815260040180806020018281038252601e8152602001807f536166654d6174683a207375627472616374696f6e206f766572666c6f77000081525060200191505060405180910390fd5b600082840390508091505092915050565b6000808284019050838110151515611c6e576040517f08c379a000000000000000000000000000000000000000000000000000000000815260040180806020018281038252601b8152602001807f536166654d6174683a206164646974696f6e206f766572666c6f77000000000081525060200191505060405180910390fd5b809150509291505056fea165627a7a72305820a5d8aaeb96ea542017b2337c2103e8a1a780a360c90221ec2507edbb157c301c0029",
  "source": "pragma solidity 0.5.0;\r\nimport \"./Running.sol\";\r\nimport \"./SafeMath.sol\";\r\n\r\ncontract Remittance is Running\r\n{\r\n    using SafeMath for uint256;\r\n    uint public depositFee;\r\n    mapping(address => uint) public fees;\r\n    uint constant MONTH_IN_SECS = 1 * 28 days;\r\n    mapping(bytes32 => Deposit) public deposits;\r\n    \r\n    event LogDeposit(address indexed remiter, bytes32 puzzle, uint indexed expires, uint value, uint depositFee);\r\n    event LogTransfer(bytes32 puzzle, address indexed remittant, uint256 amount);\r\n    event LogWithdraw(address indexed remitter, uint amount);\r\n    event LogDepositFee(address indexed remitter, uint oldFee, uint newFee);\r\n    \r\n    struct Deposit\r\n    {\r\n        address remitter;\r\n        bytes32 puzzle;\r\n        uint expires;\r\n        uint value;\r\n    }\r\n\r\n    constructor()\r\n        Running(true)\r\n        public\r\n    {\r\n    }\r\n\r\n    modifier depositDoesNotExist(bytes32 puzzle)\r\n    {\r\n        require(deposits[puzzle].expires == 0, 'Deposit exists');\r\n        _;\r\n    }\r\n\r\n    modifier depositExists(bytes32 puzzle)\r\n    {\r\n        require(deposits[puzzle].expires > 0, 'Invalid deposit');\r\n        _;\r\n    }\r\n\r\n    function createPuzzle(address recipient, bytes32 password1) public pure returns (bytes32)\r\n    {\r\n        require(recipient != address(0x0), 'Invalid address');\r\n        require(password1 != \"\", 'Invalid password');\r\n\r\n        return keccak256(abi.encodePacked(recipient, password1));\r\n    }\r\n\r\n    function setDepositFee(uint _depositFee)\r\n        public\r\n        isOwner\r\n    {\r\n        require(depositFee != _depositFee, 'Values are equal');\r\n        emit LogDepositFee(msg.sender, depositFee, _depositFee);\r\n\r\n        depositFee = _depositFee;\r\n    }\r\n\r\n    function isExpired(bytes32 puzzle)\r\n        public\r\n        view\r\n        depositExists(puzzle)\r\n        returns(bool)\r\n    {\r\n        Deposit storage deposit = deposits[puzzle];\r\n        return now > deposit.expires;\r\n    }\r\n\r\n    function deposit(bytes32 puzzle, uint timeout)\r\n        public\r\n        payable\r\n        depositDoesNotExist(puzzle)\r\n    {\r\n        // Amount deposited to contract, we need something\r\n        require(msg.value > 0, 'Need to deposit something');\r\n        require(timeout > 0 && timeout < MONTH_IN_SECS, 'Timeout needs to be valid');\r\n        require(puzzle != \"\", 'Invalid puzzle');\r\n\r\n        uint depositValue = msg.value;\r\n        if (depositFee < msg.value)\r\n        {\r\n            depositValue = msg.value.sub(depositFee);\r\n            address owner = getOwner();\r\n            fees[owner] = fees[owner].add(depositFee);\r\n        }\r\n\r\n        deposits[puzzle] = Deposit(\r\n                                        {\r\n                                            remitter: msg.sender,\r\n                                            puzzle: puzzle,\r\n                                            expires: timeout + now,\r\n                                            value: depositValue\r\n                                        }\r\n                                    );\r\n\r\n        emit LogDeposit(msg.sender,\r\n                        puzzle,\r\n                        timeout + now,\r\n                        depositValue,\r\n                        depositFee);\r\n    }\r\n\r\n    function remitterWithdraw(bytes32 puzzle)\r\n        public\r\n        depositExists(puzzle)\r\n    {\r\n        require(isExpired(puzzle), 'Deposit is not expired');\r\n\r\n        uint valueToSend = deposits[puzzle].value;\r\n        require(valueToSend > 0, 'Nothing to withdraw');\r\n\r\n        delete deposits[puzzle];\r\n        emit LogTransfer(   puzzle,\r\n                            msg.sender,\r\n                            valueToSend);\r\n\r\n        msg.sender.transfer(valueToSend);\r\n    }\r\n\r\n    function withdraw(bytes32 puzzle, bytes32 _password1)\r\n        public\r\n        depositExists(puzzle)\r\n    {\r\n        uint valueToSend = deposits[puzzle].value;\r\n        require(valueToSend > 0, 'No balance available');\r\n        require(createPuzzle(msg.sender, _password1) == deposits[puzzle].puzzle, 'Invalid answer');\r\n\r\n        delete deposits[puzzle];\r\n        emit LogTransfer(   puzzle,\r\n                            msg.sender,\r\n                            valueToSend);\r\n\r\n        msg.sender.transfer(valueToSend);\r\n    }\r\n\r\n    function withdrawDepositFees()\r\n        public\r\n    {\r\n        uint toSend = fees[msg.sender];\r\n        require(toSend > 0, 'No balance to withdraw');\r\n        delete fees[msg.sender];\r\n        emit LogWithdraw(msg.sender, toSend);\r\n        msg.sender.transfer(toSend);\r\n    }\r\n}",
  "sourcePath": "/Users/andy/Documents/GitHub/remittance/contracts/Remittance.sol",
  "compiler": {
    "name": "solc",
    "version": "0.5.0+commit.1d4f565a.Emscripten.clang"
  },
  "schemaVersion": "3.0.3",
  "updatedAt": "2019-05-24T15:45:35.988Z",
  "devdoc": {
    "methods": {}
  },
  "userdoc": {
    "methods": {}
  }
}