{
  "contractName": "Remittance",
  "abi": [
    {
      "constant": false,
      "inputs": [],
      "name": "resume",
      "outputs": [],
      "payable": false,
      "stateMutability": "nonpayable",
      "type": "function",
      "signature": "0x046f7da2"
    },
    {
      "constant": true,
      "inputs": [],
      "name": "getRunning",
      "outputs": [
        {
          "name": "",
          "type": "bool"
        }
      ],
      "payable": false,
      "stateMutability": "view",
      "type": "function",
      "signature": "0x3924f089"
    },
    {
      "constant": false,
      "inputs": [],
      "name": "kill",
      "outputs": [],
      "payable": false,
      "stateMutability": "nonpayable",
      "type": "function",
      "signature": "0x41c0e1b5"
    },
    {
      "constant": true,
      "inputs": [],
      "name": "depositFee",
      "outputs": [
        {
          "name": "",
          "type": "uint256"
        }
      ],
      "payable": false,
      "stateMutability": "view",
      "type": "function",
      "signature": "0x67a52793"
    },
    {
      "constant": false,
      "inputs": [],
      "name": "pause",
      "outputs": [],
      "payable": false,
      "stateMutability": "nonpayable",
      "type": "function",
      "signature": "0x8456cb59"
    },
    {
      "constant": true,
      "inputs": [],
      "name": "getOwner",
      "outputs": [
        {
          "name": "",
          "type": "address"
        }
      ],
      "payable": false,
      "stateMutability": "view",
      "type": "function",
      "signature": "0x893d20e8"
    },
    {
      "constant": true,
      "inputs": [
        {
          "name": "",
          "type": "uint256"
        }
      ],
      "name": "puzzles",
      "outputs": [
        {
          "name": "",
          "type": "bool"
        }
      ],
      "payable": false,
      "stateMutability": "view",
      "type": "function",
      "signature": "0x90ba2652"
    },
    {
      "constant": false,
      "inputs": [
        {
          "name": "newOwner",
          "type": "address"
        }
      ],
      "name": "changeOwner",
      "outputs": [
        {
          "name": "success",
          "type": "bool"
        }
      ],
      "payable": false,
      "stateMutability": "nonpayable",
      "type": "function",
      "signature": "0xa6f9dae1"
    },
    {
      "constant": false,
      "inputs": [
        {
          "name": "newRunning",
          "type": "bool"
        }
      ],
      "name": "setRunning",
      "outputs": [],
      "payable": false,
      "stateMutability": "nonpayable",
      "type": "function",
      "signature": "0xdfd200c5"
    },
    {
      "constant": true,
      "inputs": [
        {
          "name": "",
          "type": "address"
        }
      ],
      "name": "fees",
      "outputs": [
        {
          "name": "",
          "type": "uint256"
        }
      ],
      "payable": false,
      "stateMutability": "view",
      "type": "function",
      "signature": "0xfaaebd21"
    },
    {
      "constant": true,
      "inputs": [
        {
          "name": "",
          "type": "address"
        }
      ],
      "name": "deposits",
      "outputs": [
        {
          "name": "remitter",
          "type": "address"
        },
        {
          "name": "puzzle",
          "type": "bytes32"
        },
        {
          "name": "expires",
          "type": "uint256"
        },
        {
          "name": "value",
          "type": "uint256"
        }
      ],
      "payable": false,
      "stateMutability": "view",
      "type": "function",
      "signature": "0xfc7e286d"
    },
    {
      "inputs": [],
      "payable": false,
      "stateMutability": "nonpayable",
      "type": "constructor",
      "signature": "constructor"
    },
    {
      "anonymous": false,
      "inputs": [
        {
          "indexed": true,
          "name": "remiter",
          "type": "address"
        },
        {
          "indexed": false,
          "name": "password",
          "type": "bytes32"
        },
        {
          "indexed": true,
          "name": "expires",
          "type": "uint256"
        },
        {
          "indexed": false,
          "name": "value",
          "type": "uint256"
        },
        {
          "indexed": false,
          "name": "depositFee",
          "type": "uint256"
        }
      ],
      "name": "LogDeposit",
      "type": "event",
      "signature": "0x2e2761f646b354a5faab29bd1678d8b4d7c99f316c85f66d8487272a9c186a3c"
    },
    {
      "anonymous": false,
      "inputs": [
        {
          "indexed": true,
          "name": "remiter",
          "type": "address"
        },
        {
          "indexed": true,
          "name": "remittant",
          "type": "address"
        },
        {
          "indexed": false,
          "name": "amount",
          "type": "uint256"
        }
      ],
      "name": "LogTransfer",
      "type": "event",
      "signature": "0x0a85107a334eae0d22d21cdf13af0f8e8125039ec60baaa843d2c4c5b0680174"
    },
    {
      "anonymous": false,
      "inputs": [
        {
          "indexed": true,
          "name": "remitter",
          "type": "address"
        },
        {
          "indexed": false,
          "name": "amount",
          "type": "uint256"
        }
      ],
      "name": "LogWithdraw",
      "type": "event",
      "signature": "0x4ce7033d118120e254016dccf195288400b28fc8936425acd5f17ce2df3ab708"
    },
    {
      "anonymous": false,
      "inputs": [
        {
          "indexed": true,
          "name": "remitter",
          "type": "address"
        },
        {
          "indexed": false,
          "name": "oldFee",
          "type": "uint256"
        },
        {
          "indexed": false,
          "name": "newFee",
          "type": "uint256"
        }
      ],
      "name": "LogDepositFee",
      "type": "event",
      "signature": "0xee603488a1c18cff9806662cf9e18d1868b9b5b66c1ef40eee52c0833cc2da18"
    },
    {
      "anonymous": false,
      "inputs": [
        {
          "indexed": false,
          "name": "oldRunning",
          "type": "bool"
        },
        {
          "indexed": false,
          "name": "newRunning",
          "type": "bool"
        }
      ],
      "name": "LogRunningChanged",
      "type": "event",
      "signature": "0x558114f08c3fa972f3c6f08ee953dad136365321ef1df7646cea5054146ef068"
    },
    {
      "anonymous": false,
      "inputs": [
        {
          "indexed": true,
          "name": "oldOwner",
          "type": "address"
        },
        {
          "indexed": true,
          "name": "newOwner",
          "type": "address"
        }
      ],
      "name": "LogOwnerChanged",
      "type": "event",
      "signature": "0xfcf23a92150d56e85e3a3d33b357493246e55783095eb6a733eb8439ffc752c8"
    },
    {
      "constant": true,
      "inputs": [
        {
          "name": "recipient",
          "type": "address"
        },
        {
          "name": "password1",
          "type": "bytes32"
        },
        {
          "name": "password2",
          "type": "bytes32"
        }
      ],
      "name": "encode",
      "outputs": [
        {
          "name": "",
          "type": "bytes32"
        }
      ],
      "payable": false,
      "stateMutability": "pure",
      "type": "function",
      "signature": "0xc810a393"
    },
    {
      "constant": false,
      "inputs": [
        {
          "name": "_depositFee",
          "type": "uint256"
        }
      ],
      "name": "setDepositFee",
      "outputs": [],
      "payable": false,
      "stateMutability": "nonpayable",
      "type": "function",
      "signature": "0x490ae210"
    },
    {
      "constant": true,
      "inputs": [
        {
          "name": "addr",
          "type": "address"
        }
      ],
      "name": "isExpired",
      "outputs": [
        {
          "name": "",
          "type": "bool"
        }
      ],
      "payable": false,
      "stateMutability": "view",
      "type": "function",
      "signature": "0xba2eb541"
    },
    {
      "constant": false,
      "inputs": [
        {
          "name": "puzzle",
          "type": "bytes32"
        },
        {
          "name": "timeout",
          "type": "uint256"
        }
      ],
      "name": "deposit",
      "outputs": [],
      "payable": true,
      "stateMutability": "payable",
      "type": "function",
      "signature": "0x1de26e16"
    },
    {
      "constant": false,
      "inputs": [],
      "name": "remitterWithdraw",
      "outputs": [],
      "payable": false,
      "stateMutability": "nonpayable",
      "type": "function",
      "signature": "0xc7a21bb4"
    },
    {
      "constant": false,
      "inputs": [
        {
          "name": "remitter",
          "type": "address"
        },
        {
          "name": "_password1",
          "type": "bytes32"
        },
        {
          "name": "_password2",
          "type": "bytes32"
        }
      ],
      "name": "withdraw",
      "outputs": [],
      "payable": false,
      "stateMutability": "nonpayable",
      "type": "function",
      "signature": "0xc71b29bf"
    },
    {
      "constant": false,
      "inputs": [],
      "name": "withdrawDepositFees",
      "outputs": [],
      "payable": false,
      "stateMutability": "nonpayable",
      "type": "function",
      "signature": "0xaac0167b"
    }
  ],
  "bytecode": "0x608060405234801561001057600080fd5b506001336000806101000a81548173ffffffffffffffffffffffffffffffffffffffff021916908373ffffffffffffffffffffffffffffffffffffffff16021790555080600060146101000a81548160ff02191690831515021790555050611ee08061007d6000396000f3fe6080604052600436106100fc576000357c0100000000000000000000000000000000000000000000000000000000900463ffffffff168063046f7da2146101015780631de26e16146101185780633924f0891461015057806341c0e1b51461017f578063490ae2101461019657806367a52793146101d15780638456cb59146101fc578063893d20e81461021357806390ba26521461026a578063a6f9dae1146102bd578063aac0167b14610326578063ba2eb5411461033d578063c71b29bf146103a6578063c7a21bb41461040b578063c810a39314610422578063dfd200c51461049b578063faaebd21146104d8578063fc7e286d1461053d575b600080fd5b34801561010d57600080fd5b506101166105e3565b005b61014e6004803603604081101561012e57600080fd5b810190808035906020019092919080359060200190929190505050610674565b005b34801561015c57600080fd5b50610165610b58565b604051808215151515815260200191505060405180910390f35b34801561018b57600080fd5b50610194610b6e565b005b3480156101a257600080fd5b506101cf600480360360208110156101b957600080fd5b8101908080359060200190929190505050610cd0565b005b3480156101dd57600080fd5b506101e6610e70565b6040518082815260200191505060405180910390f35b34801561020857600080fd5b50610211610e76565b005b34801561021f57600080fd5b50610228610f06565b604051808273ffffffffffffffffffffffffffffffffffffffff1673ffffffffffffffffffffffffffffffffffffffff16815260200191505060405180910390f35b34801561027657600080fd5b506102a36004803603602081101561028d57600080fd5b8101908080359060200190929190505050610f2f565b604051808215151515815260200191505060405180910390f35b3480156102c957600080fd5b5061030c600480360360208110156102e057600080fd5b81019080803573ffffffffffffffffffffffffffffffffffffffff169060200190929190505050610f4f565b604051808215151515815260200191505060405180910390f35b34801561033257600080fd5b5061033b611243565b005b34801561034957600080fd5b5061038c6004803603602081101561036057600080fd5b81019080803573ffffffffffffffffffffffffffffffffffffffff1690602001909291905050506113da565b604051808215151515815260200191505060405180910390f35b3480156103b257600080fd5b50610409600480360360608110156103c957600080fd5b81019080803573ffffffffffffffffffffffffffffffffffffffff16906020019092919080359060200190929190803590602001909291905050506114ea565b005b34801561041757600080fd5b5061042061185b565b005b34801561042e57600080fd5b506104856004803603606081101561044557600080fd5b81019080803573ffffffffffffffffffffffffffffffffffffffff1690602001909291908035906020019092919080359060200190929190505050611b83565b6040518082815260200191505060405180910390f35b3480156104a757600080fd5b506104d6600480360360208110156104be57600080fd5b81019080803515159060200190929190505050611c00565b005b3480156104e457600080fd5b50610527600480360360208110156104fb57600080fd5b81019080803573ffffffffffffffffffffffffffffffffffffffff169060200190929190505050611d37565b6040518082815260200191505060405180910390f35b34801561054957600080fd5b5061058c6004803603602081101561056057600080fd5b81019080803573ffffffffffffffffffffffffffffffffffffffff169060200190929190505050611d4f565b604051808573ffffffffffffffffffffffffffffffffffffffff1673ffffffffffffffffffffffffffffffffffffffff16815260200184815260200183815260200182815260200194505050505060405180910390f35b600060149054906101000a900460ff16151515610668576040517f08c379a000000000000000000000000000000000000000000000000000000000815260040180806020018281038252600d8152602001807f576520617265207061757365640000000000000000000000000000000000000081525060200191505060405180910390fd5b6106726001611c00565b565b336000600360008373ffffffffffffffffffffffffffffffffffffffff1673ffffffffffffffffffffffffffffffffffffffff1681526020019081526020016000206002015414151561072f576040517f08c379a000000000000000000000000000000000000000000000000000000000815260040180806020018281038252600e8152602001807f4465706f7369742065786973747300000000000000000000000000000000000081525060200191505060405180910390fd5b6000341115156107a7576040517f08c379a00000000000000000000000000000000000000000000000000000000081526004018080602001828103825260198152602001807f4e65656420746f206465706f73697420736f6d657468696e670000000000000081525060200191505060405180910390fd5b6000821180156107b957506224ea0082105b151561082d576040517f08c379a00000000000000000000000000000000000000000000000000000000081526004018080602001828103825260198152602001807f54696d656f7574206e6565647320746f2062652076616c69640000000000000081525060200191505060405180910390fd5b600083600190041115156108a9576040517f08c379a000000000000000000000000000000000000000000000000000000000815260040180806020018281038252600c8152602001807f496e76616c69642068617368000000000000000000000000000000000000000081525060200191505060405180910390fd5b600460008460019004815260200190815260200160002060009054906101000a900460ff16151515610943576040517f08c379a00000000000000000000000000000000000000000000000000000000081526004018080602001828103825260128152602001807f54727920616e6f746865722070757a7a6c65000000000000000000000000000081525060200191505060405180910390fd5b6000349050346001541015610a0e5761096760015434611d9f90919063ffffffff16565b90506000610973610f06565b90506109c9600154600260008473ffffffffffffffffffffffffffffffffffffffff1673ffffffffffffffffffffffffffffffffffffffff16815260200190815260200160002054611e2a90919063ffffffff16565b600260008373ffffffffffffffffffffffffffffffffffffffff1673ffffffffffffffffffffffffffffffffffffffff16815260200190815260200160002081905550505b6080604051908101604052803373ffffffffffffffffffffffffffffffffffffffff168152602001858152602001428501815260200182815250600360003373ffffffffffffffffffffffffffffffffffffffff1673ffffffffffffffffffffffffffffffffffffffff16815260200190815260200160002060008201518160000160006101000a81548173ffffffffffffffffffffffffffffffffffffffff021916908373ffffffffffffffffffffffffffffffffffffffff1602179055506020820151816001015560408201518160020155606082015181600301559050504283013373ffffffffffffffffffffffffffffffffffffffff167f2e2761f646b354a5faab29bd1678d8b4d7c99f316c85f66d8487272a9c186a3c868460015460405180848152602001838152602001828152602001935050505060405180910390a350505050565b60008060149054906101000a900460ff16905090565b6000809054906101000a900473ffffffffffffffffffffffffffffffffffffffff1673ffffffffffffffffffffffffffffffffffffffff163373ffffffffffffffffffffffffffffffffffffffff16141515610c32576040517f08c379a00000000000000000000000000000000000000000000000000000000081526004018080602001828103825260198152602001807f4f776e6572207065726d697373696f6e2072657175697265640000000000000081525060200191505060405180910390fd5b600060149054906101000a900460ff16151515610cb7576040517f08c379a000000000000000000000000000000000000000000000000000000000815260040180806020018281038252600d8152602001807f576520617265207061757365640000000000000000000000000000000000000081525060200191505060405180910390fd5b3373ffffffffffffffffffffffffffffffffffffffff16ff5b6000809054906101000a900473ffffffffffffffffffffffffffffffffffffffff1673ffffffffffffffffffffffffffffffffffffffff163373ffffffffffffffffffffffffffffffffffffffff16141515610d94576040517f08c379a00000000000000000000000000000000000000000000000000000000081526004018080602001828103825260198152602001807f4f776e6572207065726d697373696f6e2072657175697265640000000000000081525060200191505060405180910390fd5b8060015414151515610e0e576040517f08c379a00000000000000000000000000000000000000000000000000000000081526004018080602001828103825260108152602001807f56616c7565732061726520657175616c0000000000000000000000000000000081525060200191505060405180910390fd5b3373ffffffffffffffffffffffffffffffffffffffff167fee603488a1c18cff9806662cf9e18d1868b9b5b66c1ef40eee52c0833cc2da1860015483604051808381526020018281526020019250505060405180910390a28060018190555050565b60015481565b600060149054906101000a900460ff161515610efa576040517f08c379a000000000000000000000000000000000000000000000000000000000815260040180806020018281038252600f8152602001807f576520686176652073746f70706564000000000000000000000000000000000081525060200191505060405180910390fd5b610f046000611c00565b565b60008060009054906101000a900473ffffffffffffffffffffffffffffffffffffffff16905090565b60046020528060005260406000206000915054906101000a900460ff1681565b60008060009054906101000a900473ffffffffffffffffffffffffffffffffffffffff1673ffffffffffffffffffffffffffffffffffffffff163373ffffffffffffffffffffffffffffffffffffffff16141515611015576040517f08c379a00000000000000000000000000000000000000000000000000000000081526004018080602001828103825260198152602001807f4f776e6572207065726d697373696f6e2072657175697265640000000000000081525060200191505060405180910390fd5b600073ffffffffffffffffffffffffffffffffffffffff168273ffffffffffffffffffffffffffffffffffffffff16141515156110ba576040517f08c379a00000000000000000000000000000000000000000000000000000000081526004018080602001828103825260108152602001807f496e76616c6964206e65774f776e65720000000000000000000000000000000081525060200191505060405180910390fd5b6000809054906101000a900473ffffffffffffffffffffffffffffffffffffffff1673ffffffffffffffffffffffffffffffffffffffff168273ffffffffffffffffffffffffffffffffffffffff161415151561117f576040517f08c379a000000000000000000000000000000000000000000000000000000000815260040180806020018281038252600a8152602001807f53616d65206f776e65720000000000000000000000000000000000000000000081525060200191505060405180910390fd5b8173ffffffffffffffffffffffffffffffffffffffff166000809054906101000a900473ffffffffffffffffffffffffffffffffffffffff1673ffffffffffffffffffffffffffffffffffffffff167ffcf23a92150d56e85e3a3d33b357493246e55783095eb6a733eb8439ffc752c860405160405180910390a3816000806101000a81548173ffffffffffffffffffffffffffffffffffffffff021916908373ffffffffffffffffffffffffffffffffffffffff16021790555060019050919050565b6000600260003373ffffffffffffffffffffffffffffffffffffffff1673ffffffffffffffffffffffffffffffffffffffff1681526020019081526020016000205490506000811115156112ff576040517f08c379a00000000000000000000000000000000000000000000000000000000081526004018080602001828103825260168152602001807f4e6f2062616c616e636520746f2077697468647261770000000000000000000081525060200191505060405180910390fd5b600260003373ffffffffffffffffffffffffffffffffffffffff1673ffffffffffffffffffffffffffffffffffffffff168152602001908152602001600020600090553373ffffffffffffffffffffffffffffffffffffffff167f4ce7033d118120e254016dccf195288400b28fc8936425acd5f17ce2df3ab708826040518082815260200191505060405180910390a23373ffffffffffffffffffffffffffffffffffffffff166108fc829081150290604051600060405180830381858888f193505050501580156113d6573d6000803e3d6000fd5b5050565b6000816000600360008373ffffffffffffffffffffffffffffffffffffffff1673ffffffffffffffffffffffffffffffffffffffff16815260200190815260200160002060020154111515611497576040517f08c379a000000000000000000000000000000000000000000000000000000000815260040180806020018281038252600f8152602001807f496e76616c6964206465706f736974000000000000000000000000000000000081525060200191505060405180910390fd5b6000600360008573ffffffffffffffffffffffffffffffffffffffff1673ffffffffffffffffffffffffffffffffffffffff16815260200190815260200160002090508060020154421192505050919050565b826000600360008373ffffffffffffffffffffffffffffffffffffffff1673ffffffffffffffffffffffffffffffffffffffff168152602001908152602001600020600201541115156115a5576040517f08c379a000000000000000000000000000000000000000000000000000000000815260040180806020018281038252600f8152602001807f496e76616c6964206465706f736974000000000000000000000000000000000081525060200191505060405180910390fd5b6000600360008673ffffffffffffffffffffffffffffffffffffffff1673ffffffffffffffffffffffffffffffffffffffff168152602001908152602001600020600301549050600081111515611664576040517f08c379a00000000000000000000000000000000000000000000000000000000081526004018080602001828103825260148152602001807f4e6f2062616c616e636520617661696c61626c6500000000000000000000000081525060200191505060405180910390fd5b600360008673ffffffffffffffffffffffffffffffffffffffff1673ffffffffffffffffffffffffffffffffffffffff168152602001908152602001600020600101546116b2338686611b83565b141515611727576040517f08c379a000000000000000000000000000000000000000000000000000000000815260040180806020018281038252600e8152602001807f496e76616c696420616e7377657200000000000000000000000000000000000081525060200191505060405180910390fd5b600360008673ffffffffffffffffffffffffffffffffffffffff1673ffffffffffffffffffffffffffffffffffffffff168152602001908152602001600020600080820160006101000a81549073ffffffffffffffffffffffffffffffffffffffff021916905560018201600090556002820160009055600382016000905550503373ffffffffffffffffffffffffffffffffffffffff168573ffffffffffffffffffffffffffffffffffffffff167f0a85107a334eae0d22d21cdf13af0f8e8125039ec60baaa843d2c4c5b0680174836040518082815260200191505060405180910390a33373ffffffffffffffffffffffffffffffffffffffff166108fc829081150290604051600060405180830381858888f19350505050158015611853573d6000803e3d6000fd5b505050505050565b336000600360008373ffffffffffffffffffffffffffffffffffffffff1673ffffffffffffffffffffffffffffffffffffffff16815260200190815260200160002060020154111515611916576040517f08c379a000000000000000000000000000000000000000000000000000000000815260040180806020018281038252600f8152602001807f496e76616c6964206465706f736974000000000000000000000000000000000081525060200191505060405180910390fd5b61191f336113da565b1515611993576040517f08c379a00000000000000000000000000000000000000000000000000000000081526004018080602001828103825260168152602001807f4465706f736974206973206e6f7420657870697265640000000000000000000081525060200191505060405180910390fd5b6000600360003373ffffffffffffffffffffffffffffffffffffffff1673ffffffffffffffffffffffffffffffffffffffff168152602001908152602001600020600301549050600081111515611a52576040517f08c379a00000000000000000000000000000000000000000000000000000000081526004018080602001828103825260138152602001807f4e6f7468696e6720746f2077697468647261770000000000000000000000000081525060200191505060405180910390fd5b600360003373ffffffffffffffffffffffffffffffffffffffff1673ffffffffffffffffffffffffffffffffffffffff168152602001908152602001600020600080820160006101000a81549073ffffffffffffffffffffffffffffffffffffffff021916905560018201600090556002820160009055600382016000905550503373ffffffffffffffffffffffffffffffffffffffff163373ffffffffffffffffffffffffffffffffffffffff167f0a85107a334eae0d22d21cdf13af0f8e8125039ec60baaa843d2c4c5b0680174836040518082815260200191505060405180910390a33373ffffffffffffffffffffffffffffffffffffffff166108fc829081150290604051600060405180830381858888f19350505050158015611b7e573d6000803e3d6000fd5b505050565b6000838383604051602001808473ffffffffffffffffffffffffffffffffffffffff1673ffffffffffffffffffffffffffffffffffffffff166c0100000000000000000000000002815260140183815260200182815260200193505050506040516020818303038152906040528051906020012090509392505050565b6000809054906101000a900473ffffffffffffffffffffffffffffffffffffffff1673ffffffffffffffffffffffffffffffffffffffff163373ffffffffffffffffffffffffffffffffffffffff16141515611cc4576040517f08c379a00000000000000000000000000000000000000000000000000000000081526004018080602001828103825260198152602001807f4f776e6572207065726d697373696f6e2072657175697265640000000000000081525060200191505060405180910390fd5b7f558114f08c3fa972f3c6f08ee953dad136365321ef1df7646cea5054146ef068600060149054906101000a900460ff16826040518083151515158152602001821515151581526020019250505060405180910390a180600060146101000a81548160ff02191690831515021790555050565b60026020528060005260406000206000915090505481565b60036020528060005260406000206000915090508060000160009054906101000a900473ffffffffffffffffffffffffffffffffffffffff16908060010154908060020154908060030154905084565b6000828211151515611e19576040517f08c379a000000000000000000000000000000000000000000000000000000000815260040180806020018281038252601e8152602001807f536166654d6174683a207375627472616374696f6e206f766572666c6f77000081525060200191505060405180910390fd5b600082840390508091505092915050565b6000808284019050838110151515611eaa576040517f08c379a000000000000000000000000000000000000000000000000000000000815260040180806020018281038252601b8152602001807f536166654d6174683a206164646974696f6e206f766572666c6f77000000000081525060200191505060405180910390fd5b809150509291505056fea165627a7a7230582038348a5a9bc8e805456c733183478d4d5256afbcbe36b0431328e64d712321a00029",
  "source": "pragma solidity 0.5.0;\r\nimport \"./Running.sol\";\r\nimport \"./SafeMath.sol\";\r\n\r\ncontract Remittance is Running\r\n{\r\n    using SafeMath for uint256;\r\n    uint public depositFee;\r\n    mapping(address => uint) public fees;\r\n    uint constant MONTH_IN_SECS = 1 * 28 days;\r\n    mapping(address => Deposit) public deposits;\r\n    mapping(uint => bool) public puzzles;\r\n\r\n    event LogDeposit(address indexed remiter, bytes32 password, uint indexed expires, uint value, uint depositFee);\r\n    event LogTransfer(address indexed remiter, address indexed remittant, uint256 amount);\r\n    event LogWithdraw(address indexed remitter, uint amount);\r\n    event LogDepositFee(address indexed remitter, uint oldFee, uint newFee);\r\n    \r\n    struct Deposit\r\n    {\r\n        address remitter;\r\n        bytes32 puzzle;\r\n        uint expires;\r\n        uint value;\r\n    }\r\n\r\n    constructor()\r\n        Running(true)\r\n        public\r\n    {\r\n    }\r\n\r\n    modifier depositDoesNotExist(address addr)\r\n    {\r\n        require(deposits[addr].expires == 0, 'Deposit exists');\r\n        _;\r\n    }\r\n\r\n    modifier depositExists(address addr)\r\n    {\r\n        require(deposits[addr].expires > 0, 'Invalid deposit');\r\n        _;\r\n    }\r\n\r\n    function encode(address recipient, bytes32 password1, bytes32 password2) public pure returns (bytes32)\r\n    {\r\n        return keccak256(abi.encodePacked(recipient, password1, password2));\r\n    }\r\n\r\n    function setDepositFee(uint _depositFee)\r\n        public\r\n        isOwner\r\n    {\r\n        require(depositFee != _depositFee, 'Values are equal');\r\n        emit LogDepositFee(msg.sender, depositFee, _depositFee);\r\n\r\n        depositFee = _depositFee;\r\n    }\r\n\r\n    function isExpired(address addr)\r\n        public\r\n        view\r\n        depositExists(addr)\r\n        returns(bool)\r\n    {\r\n        Deposit storage deposit = deposits[addr];\r\n        return now > deposit.expires;\r\n    }\r\n\r\n    function deposit(bytes32 puzzle, uint timeout)\r\n        public\r\n        payable\r\n        depositDoesNotExist(msg.sender)\r\n    {\r\n        // Amount deposited to contract, we need something\r\n        require(msg.value > 0, 'Need to deposit something');\r\n        require(timeout > 0 && timeout < MONTH_IN_SECS, 'Timeout needs to be valid');\r\n        require(uint(puzzle) > 0, 'Invalid hash');\r\n        require(!puzzles[uint(puzzle)], 'Try another puzzle');\r\n\r\n        uint depositValue = msg.value;\r\n        if (depositFee < msg.value)\r\n        {\r\n            depositValue = msg.value.sub(depositFee);\r\n            address owner = getOwner();\r\n            fees[owner] = fees[owner].add(depositFee);\r\n        }\r\n\r\n        deposits[msg.sender] = Deposit(\r\n                                        {\r\n                                            remitter: msg.sender,\r\n                                            puzzle: puzzle,\r\n                                            expires: timeout + now,\r\n                                            value: depositValue\r\n                                        }\r\n                                    );\r\n\r\n        emit LogDeposit(msg.sender,\r\n                        puzzle,\r\n                        timeout + now,\r\n                        depositValue,\r\n                        depositFee);\r\n    }\r\n\r\n    function remitterWithdraw()\r\n        public\r\n        depositExists(msg.sender)\r\n    {\r\n        require(isExpired(msg.sender), 'Deposit is not expired');\r\n\r\n        uint valueToSend = deposits[msg.sender].value;\r\n        require(valueToSend > 0, 'Nothing to withdraw');\r\n\r\n        delete deposits[msg.sender];\r\n        emit LogTransfer(   msg.sender,\r\n                            msg.sender,\r\n                            valueToSend);\r\n\r\n        msg.sender.transfer(valueToSend);\r\n    }\r\n\r\n    function withdraw(address remitter, bytes32 _password1, bytes32 _password2)\r\n        public\r\n        depositExists(remitter)\r\n    {\r\n        uint valueToSend = deposits[remitter].value;\r\n        require(valueToSend > 0, 'No balance available');\r\n        require(encode(msg.sender, _password1, _password2) == deposits[remitter].puzzle, 'Invalid answer');\r\n\r\n        delete deposits[remitter];\r\n        emit LogTransfer(   remitter,\r\n                            msg.sender,\r\n                            valueToSend);\r\n\r\n        msg.sender.transfer(valueToSend);\r\n    }\r\n\r\n    function withdrawDepositFees()\r\n        public\r\n    {\r\n        uint toSend = fees[msg.sender];\r\n        require(toSend > 0, 'No balance to withdraw');\r\n        delete fees[msg.sender];\r\n        emit LogWithdraw(msg.sender, toSend);\r\n        msg.sender.transfer(toSend);\r\n    }\r\n}",
  "sourcePath": "/Users/andy/Documents/GitHub/remittance/contracts/Remittance.sol",
  "compiler": {
    "name": "solc",
    "version": "0.5.0+commit.1d4f565a.Emscripten.clang"
  },
  "schemaVersion": "3.0.3",
  "updatedAt": "2019-05-23T19:40:13.345Z",
  "devdoc": {
    "methods": {}
  },
  "userdoc": {
    "methods": {}
  }
}