{
  "contractName": "Remittance",
  "abi": [
    {
      "constant": false,
      "inputs": [],
      "name": "resume",
      "outputs": [],
      "payable": false,
      "stateMutability": "nonpayable",
      "type": "function",
      "signature": "0x046f7da2"
    },
    {
      "constant": true,
      "inputs": [],
      "name": "getRunning",
      "outputs": [
        {
          "name": "",
          "type": "bool"
        }
      ],
      "payable": false,
      "stateMutability": "view",
      "type": "function",
      "signature": "0x3924f089"
    },
    {
      "constant": true,
      "inputs": [
        {
          "name": "",
          "type": "bytes32"
        }
      ],
      "name": "deposits",
      "outputs": [
        {
          "name": "remitter",
          "type": "address"
        },
        {
          "name": "expires",
          "type": "uint256"
        },
        {
          "name": "value",
          "type": "uint256"
        }
      ],
      "payable": false,
      "stateMutability": "view",
      "type": "function",
      "signature": "0x3d4dff7b"
    },
    {
      "constant": false,
      "inputs": [],
      "name": "kill",
      "outputs": [],
      "payable": false,
      "stateMutability": "nonpayable",
      "type": "function",
      "signature": "0x41c0e1b5"
    },
    {
      "constant": true,
      "inputs": [],
      "name": "depositFee",
      "outputs": [
        {
          "name": "",
          "type": "uint256"
        }
      ],
      "payable": false,
      "stateMutability": "view",
      "type": "function",
      "signature": "0x67a52793"
    },
    {
      "constant": false,
      "inputs": [],
      "name": "pause",
      "outputs": [],
      "payable": false,
      "stateMutability": "nonpayable",
      "type": "function",
      "signature": "0x8456cb59"
    },
    {
      "constant": true,
      "inputs": [],
      "name": "getOwner",
      "outputs": [
        {
          "name": "",
          "type": "address"
        }
      ],
      "payable": false,
      "stateMutability": "view",
      "type": "function",
      "signature": "0x893d20e8"
    },
    {
      "constant": false,
      "inputs": [
        {
          "name": "newOwner",
          "type": "address"
        }
      ],
      "name": "changeOwner",
      "outputs": [
        {
          "name": "success",
          "type": "bool"
        }
      ],
      "payable": false,
      "stateMutability": "nonpayable",
      "type": "function",
      "signature": "0xa6f9dae1"
    },
    {
      "constant": false,
      "inputs": [
        {
          "name": "newRunning",
          "type": "bool"
        }
      ],
      "name": "setRunning",
      "outputs": [],
      "payable": false,
      "stateMutability": "nonpayable",
      "type": "function",
      "signature": "0xdfd200c5"
    },
    {
      "constant": true,
      "inputs": [
        {
          "name": "",
          "type": "address"
        }
      ],
      "name": "fees",
      "outputs": [
        {
          "name": "",
          "type": "uint256"
        }
      ],
      "payable": false,
      "stateMutability": "view",
      "type": "function",
      "signature": "0xfaaebd21"
    },
    {
      "inputs": [],
      "payable": false,
      "stateMutability": "nonpayable",
      "type": "constructor",
      "signature": "constructor"
    },
    {
      "anonymous": false,
      "inputs": [
        {
          "indexed": true,
          "name": "remiter",
          "type": "address"
        },
        {
          "indexed": true,
          "name": "puzzle",
          "type": "bytes32"
        },
        {
          "indexed": false,
          "name": "expires",
          "type": "uint256"
        },
        {
          "indexed": false,
          "name": "value",
          "type": "uint256"
        },
        {
          "indexed": false,
          "name": "depositFee",
          "type": "uint256"
        }
      ],
      "name": "LogDeposit",
      "type": "event",
      "signature": "0x2e2761f646b354a5faab29bd1678d8b4d7c99f316c85f66d8487272a9c186a3c"
    },
    {
      "anonymous": false,
      "inputs": [
        {
          "indexed": true,
          "name": "puzzle",
          "type": "bytes32"
        },
        {
          "indexed": true,
          "name": "remittant",
          "type": "address"
        },
        {
          "indexed": false,
          "name": "amount",
          "type": "uint256"
        }
      ],
      "name": "LogTransfer",
      "type": "event",
      "signature": "0x928a443b47fd5062745dda8e9311b69d2a5ca6599d53d9d42628de37f0088776"
    },
    {
      "anonymous": false,
      "inputs": [
        {
          "indexed": true,
          "name": "remitter",
          "type": "address"
        },
        {
          "indexed": false,
          "name": "amount",
          "type": "uint256"
        }
      ],
      "name": "LogWithdraw",
      "type": "event",
      "signature": "0x4ce7033d118120e254016dccf195288400b28fc8936425acd5f17ce2df3ab708"
    },
    {
      "anonymous": false,
      "inputs": [
        {
          "indexed": true,
          "name": "remitter",
          "type": "address"
        },
        {
          "indexed": false,
          "name": "oldFee",
          "type": "uint256"
        },
        {
          "indexed": false,
          "name": "newFee",
          "type": "uint256"
        }
      ],
      "name": "LogDepositFee",
      "type": "event",
      "signature": "0xee603488a1c18cff9806662cf9e18d1868b9b5b66c1ef40eee52c0833cc2da18"
    },
    {
      "anonymous": false,
      "inputs": [
        {
          "indexed": false,
          "name": "oldRunning",
          "type": "bool"
        },
        {
          "indexed": false,
          "name": "newRunning",
          "type": "bool"
        }
      ],
      "name": "LogRunningChanged",
      "type": "event",
      "signature": "0x558114f08c3fa972f3c6f08ee953dad136365321ef1df7646cea5054146ef068"
    },
    {
      "anonymous": false,
      "inputs": [
        {
          "indexed": true,
          "name": "oldOwner",
          "type": "address"
        },
        {
          "indexed": true,
          "name": "newOwner",
          "type": "address"
        }
      ],
      "name": "LogOwnerChanged",
      "type": "event",
      "signature": "0xfcf23a92150d56e85e3a3d33b357493246e55783095eb6a733eb8439ffc752c8"
    },
    {
      "constant": true,
      "inputs": [
        {
          "name": "recipient",
          "type": "address"
        },
        {
          "name": "password1",
          "type": "bytes32"
        }
      ],
      "name": "createPuzzle",
      "outputs": [
        {
          "name": "",
          "type": "bytes32"
        }
      ],
      "payable": false,
      "stateMutability": "view",
      "type": "function",
      "signature": "0xb6d7c1b8"
    },
    {
      "constant": false,
      "inputs": [
        {
          "name": "_depositFee",
          "type": "uint256"
        }
      ],
      "name": "setDepositFee",
      "outputs": [],
      "payable": false,
      "stateMutability": "nonpayable",
      "type": "function",
      "signature": "0x490ae210"
    },
    {
      "constant": true,
      "inputs": [
        {
          "name": "puzzle",
          "type": "bytes32"
        }
      ],
      "name": "isExpired",
      "outputs": [
        {
          "name": "",
          "type": "bool"
        }
      ],
      "payable": false,
      "stateMutability": "view",
      "type": "function",
      "signature": "0x6db2feb2"
    },
    {
      "constant": false,
      "inputs": [
        {
          "name": "puzzle",
          "type": "bytes32"
        },
        {
          "name": "timeout",
          "type": "uint256"
        }
      ],
      "name": "deposit",
      "outputs": [],
      "payable": true,
      "stateMutability": "payable",
      "type": "function",
      "signature": "0x1de26e16"
    },
    {
      "constant": false,
      "inputs": [
        {
          "name": "puzzle",
          "type": "bytes32"
        }
      ],
      "name": "remitterWithdraw",
      "outputs": [],
      "payable": false,
      "stateMutability": "nonpayable",
      "type": "function",
      "signature": "0x7fb76639"
    },
    {
      "constant": false,
      "inputs": [
        {
          "name": "_password1",
          "type": "bytes32"
        }
      ],
      "name": "withdraw",
      "outputs": [],
      "payable": false,
      "stateMutability": "nonpayable",
      "type": "function",
      "signature": "0x8e19899e"
    },
    {
      "constant": false,
      "inputs": [],
      "name": "withdrawDepositFees",
      "outputs": [],
      "payable": false,
      "stateMutability": "nonpayable",
      "type": "function",
      "signature": "0xaac0167b"
    }
  ],
  "bytecode": "0x608060405234801561001057600080fd5b506001336000806101000a81548173ffffffffffffffffffffffffffffffffffffffff021916908373ffffffffffffffffffffffffffffffffffffffff16021790555080600060146101000a81548160ff02191690831515021790555050611c248061007d6000396000f3fe6080604052600436106100f1576000357c0100000000000000000000000000000000000000000000000000000000900463ffffffff168063046f7da2146100f65780631de26e161461010d5780633924f089146101455780633d4dff7b1461017457806341c0e1b5146101fd578063490ae2101461021457806367a527931461024f5780636db2feb21461027a5780637fb76639146102cd5780638456cb5914610308578063893d20e81461031f5780638e19899e14610376578063a6f9dae1146103b1578063aac0167b1461041a578063b6d7c1b814610431578063dfd200c5146104a0578063faaebd21146104dd575b600080fd5b34801561010257600080fd5b5061010b610542565b005b6101436004803603604081101561012357600080fd5b8101908080359060200190929190803590602001909291905050506105d3565b005b34801561015157600080fd5b5061015a6109fe565b604051808215151515815260200191505060405180910390f35b34801561018057600080fd5b506101ad6004803603602081101561019757600080fd5b8101908080359060200190929190505050610a14565b604051808473ffffffffffffffffffffffffffffffffffffffff1673ffffffffffffffffffffffffffffffffffffffff168152602001838152602001828152602001935050505060405180910390f35b34801561020957600080fd5b50610212610a5e565b005b34801561022057600080fd5b5061024d6004803603602081101561023757600080fd5b8101908080359060200190929190505050610bc0565b005b34801561025b57600080fd5b50610264610d60565b6040518082815260200191505060405180910390f35b34801561028657600080fd5b506102b36004803603602081101561029d57600080fd5b8101908080359060200190929190505050610d66565b604051808215151515815260200191505060405180910390f35b3480156102d957600080fd5b50610306600480360360208110156102f057600080fd5b8101908080359060200190929190505050610e65565b005b34801561031457600080fd5b5061031d611108565b005b34801561032b57600080fd5b50610334611198565b604051808273ffffffffffffffffffffffffffffffffffffffff1673ffffffffffffffffffffffffffffffffffffffff16815260200191505060405180910390f35b34801561038257600080fd5b506103af6004803603602081101561039957600080fd5b81019080803590602001909291905050506111c1565b005b3480156103bd57600080fd5b50610400600480360360208110156103d457600080fd5b81019080803573ffffffffffffffffffffffffffffffffffffffff169060200190929190505050611335565b604051808215151515815260200191505060405180910390f35b34801561042657600080fd5b5061042f611629565b005b34801561043d57600080fd5b5061048a6004803603604081101561045457600080fd5b81019080803573ffffffffffffffffffffffffffffffffffffffff169060200190929190803590602001909291905050506117c0565b6040518082815260200191505060405180910390f35b3480156104ac57600080fd5b506104db600480360360208110156104c357600080fd5b81019080803515159060200190929190505050611994565b005b3480156104e957600080fd5b5061052c6004803603602081101561050057600080fd5b81019080803573ffffffffffffffffffffffffffffffffffffffff169060200190929190505050611acb565b6040518082815260200191505060405180910390f35b600060149054906101000a900460ff161515156105c7576040517f08c379a000000000000000000000000000000000000000000000000000000000815260040180806020018281038252600d8152602001807f576520617265207061757365640000000000000000000000000000000000000081525060200191505060405180910390fd5b6105d16001611994565b565b81600073ffffffffffffffffffffffffffffffffffffffff166003600083815260200190815260200160002060000160009054906101000a900473ffffffffffffffffffffffffffffffffffffffff1673ffffffffffffffffffffffffffffffffffffffff161415156106ae576040517f08c379a00000000000000000000000000000000000000000000000000000000081526004018080602001828103825260148152602001807f4465706f736974206973206e6f7420656d70747900000000000000000000000081525060200191505060405180910390fd5b600034111515610726576040517f08c379a00000000000000000000000000000000000000000000000000000000081526004018080602001828103825260198152602001807f4e65656420746f206465706f73697420736f6d657468696e670000000000000081525060200191505060405180910390fd5b60008211801561073857506224ea0082105b15156107ac576040517f08c379a00000000000000000000000000000000000000000000000000000000081526004018080602001828103825260198152602001807f54696d656f7574206e6565647320746f2062652076616c69640000000000000081525060200191505060405180910390fd5b60008314151515610825576040517f08c379a000000000000000000000000000000000000000000000000000000000815260040180806020018281038252600e8152602001807f496e76616c69642070757a7a6c6500000000000000000000000000000000000081525060200191505060405180910390fd5b60003490503460015410156108f05761084960015434611ae390919063ffffffff16565b90506000610855611198565b90506108ab600154600260008473ffffffffffffffffffffffffffffffffffffffff1673ffffffffffffffffffffffffffffffffffffffff16815260200190815260200160002054611b6e90919063ffffffff16565b600260008373ffffffffffffffffffffffffffffffffffffffff1673ffffffffffffffffffffffffffffffffffffffff16815260200190815260200160002081905550505b6060604051908101604052803373ffffffffffffffffffffffffffffffffffffffff1681526020014285018152602001828152506003600086815260200190815260200160002060008201518160000160006101000a81548173ffffffffffffffffffffffffffffffffffffffff021916908373ffffffffffffffffffffffffffffffffffffffff1602179055506020820151816001015560408201518160020155905050833373ffffffffffffffffffffffffffffffffffffffff167f2e2761f646b354a5faab29bd1678d8b4d7c99f316c85f66d8487272a9c186a3c4286018460015460405180848152602001838152602001828152602001935050505060405180910390a350505050565b60008060149054906101000a900460ff16905090565b60036020528060005260406000206000915090508060000160009054906101000a900473ffffffffffffffffffffffffffffffffffffffff16908060010154908060020154905083565b6000809054906101000a900473ffffffffffffffffffffffffffffffffffffffff1673ffffffffffffffffffffffffffffffffffffffff163373ffffffffffffffffffffffffffffffffffffffff16141515610b22576040517f08c379a00000000000000000000000000000000000000000000000000000000081526004018080602001828103825260198152602001807f4f776e6572207065726d697373696f6e2072657175697265640000000000000081525060200191505060405180910390fd5b600060149054906101000a900460ff16151515610ba7576040517f08c379a000000000000000000000000000000000000000000000000000000000815260040180806020018281038252600d8152602001807f576520617265207061757365640000000000000000000000000000000000000081525060200191505060405180910390fd5b3373ffffffffffffffffffffffffffffffffffffffff16ff5b6000809054906101000a900473ffffffffffffffffffffffffffffffffffffffff1673ffffffffffffffffffffffffffffffffffffffff163373ffffffffffffffffffffffffffffffffffffffff16141515610c84576040517f08c379a00000000000000000000000000000000000000000000000000000000081526004018080602001828103825260198152602001807f4f776e6572207065726d697373696f6e2072657175697265640000000000000081525060200191505060405180910390fd5b8060015414151515610cfe576040517f08c379a00000000000000000000000000000000000000000000000000000000081526004018080602001828103825260108152602001807f56616c7565732061726520657175616c0000000000000000000000000000000081525060200191505060405180910390fd5b3373ffffffffffffffffffffffffffffffffffffffff167fee603488a1c18cff9806662cf9e18d1868b9b5b66c1ef40eee52c0833cc2da1860015483604051808381526020018281526020019250505060405180910390a28060018190555050565b60015481565b600081600073ffffffffffffffffffffffffffffffffffffffff166003600083815260200190815260200160002060000160009054906101000a900473ffffffffffffffffffffffffffffffffffffffff1673ffffffffffffffffffffffffffffffffffffffff1614151515610e44576040517f08c379a00000000000000000000000000000000000000000000000000000000081526004018080602001828103825260148152602001807f4465706f736974206973206e6f742076616c696400000000000000000000000081525060200191505060405180910390fd5b60036000848152602001908152602001600020600101544211915050919050565b80600073ffffffffffffffffffffffffffffffffffffffff166003600083815260200190815260200160002060000160009054906101000a900473ffffffffffffffffffffffffffffffffffffffff1673ffffffffffffffffffffffffffffffffffffffff1614151515610f41576040517f08c379a00000000000000000000000000000000000000000000000000000000081526004018080602001828103825260148152602001807f4465706f736974206973206e6f742076616c696400000000000000000000000081525060200191505060405180910390fd5b610f4a82610d66565b1515610fbe576040517f08c379a00000000000000000000000000000000000000000000000000000000081526004018080602001828103825260168152602001807f4465706f736974206973206e6f7420657870697265640000000000000000000081525060200191505060405180910390fd5b600060036000848152602001908152602001600020600201549050600081111515611051576040517f08c379a00000000000000000000000000000000000000000000000000000000081526004018080602001828103825260138152602001807f4e6f7468696e6720746f2077697468647261770000000000000000000000000081525060200191505060405180910390fd5b600060036000858152602001908152602001600020600201819055503373ffffffffffffffffffffffffffffffffffffffff16837f928a443b47fd5062745dda8e9311b69d2a5ca6599d53d9d42628de37f0088776836040518082815260200191505060405180910390a33373ffffffffffffffffffffffffffffffffffffffff166108fc829081150290604051600060405180830381858888f19350505050158015611102573d6000803e3d6000fd5b50505050565b600060149054906101000a900460ff16151561118c576040517f08c379a000000000000000000000000000000000000000000000000000000000815260040180806020018281038252600f8152602001807f576520686176652073746f70706564000000000000000000000000000000000081525060200191505060405180910390fd5b6111966000611994565b565b60008060009054906101000a900473ffffffffffffffffffffffffffffffffffffffff16905090565b60006111cd33836117c0565b9050600060036000838152602001908152602001600020600201549050600081111515611262576040517f08c379a00000000000000000000000000000000000000000000000000000000081526004018080602001828103825260148152602001807f4e6f2062616c616e636520617661696c61626c6500000000000000000000000081525060200191505060405180910390fd5b60006003600084815260200190815260200160002060020181905550600060036000848152602001908152602001600020600101819055503373ffffffffffffffffffffffffffffffffffffffff16827f928a443b47fd5062745dda8e9311b69d2a5ca6599d53d9d42628de37f0088776836040518082815260200191505060405180910390a33373ffffffffffffffffffffffffffffffffffffffff166108fc829081150290604051600060405180830381858888f1935050505015801561132f573d6000803e3d6000fd5b50505050565b60008060009054906101000a900473ffffffffffffffffffffffffffffffffffffffff1673ffffffffffffffffffffffffffffffffffffffff163373ffffffffffffffffffffffffffffffffffffffff161415156113fb576040517f08c379a00000000000000000000000000000000000000000000000000000000081526004018080602001828103825260198152602001807f4f776e6572207065726d697373696f6e2072657175697265640000000000000081525060200191505060405180910390fd5b600073ffffffffffffffffffffffffffffffffffffffff168273ffffffffffffffffffffffffffffffffffffffff16141515156114a0576040517f08c379a00000000000000000000000000000000000000000000000000000000081526004018080602001828103825260108152602001807f496e76616c6964206e65774f776e65720000000000000000000000000000000081525060200191505060405180910390fd5b6000809054906101000a900473ffffffffffffffffffffffffffffffffffffffff1673ffffffffffffffffffffffffffffffffffffffff168273ffffffffffffffffffffffffffffffffffffffff1614151515611565576040517f08c379a000000000000000000000000000000000000000000000000000000000815260040180806020018281038252600a8152602001807f53616d65206f776e65720000000000000000000000000000000000000000000081525060200191505060405180910390fd5b8173ffffffffffffffffffffffffffffffffffffffff166000809054906101000a900473ffffffffffffffffffffffffffffffffffffffff1673ffffffffffffffffffffffffffffffffffffffff167ffcf23a92150d56e85e3a3d33b357493246e55783095eb6a733eb8439ffc752c860405160405180910390a3816000806101000a81548173ffffffffffffffffffffffffffffffffffffffff021916908373ffffffffffffffffffffffffffffffffffffffff16021790555060019050919050565b6000600260003373ffffffffffffffffffffffffffffffffffffffff1673ffffffffffffffffffffffffffffffffffffffff1681526020019081526020016000205490506000811115156116e5576040517f08c379a00000000000000000000000000000000000000000000000000000000081526004018080602001828103825260168152602001807f4e6f2062616c616e636520746f2077697468647261770000000000000000000081525060200191505060405180910390fd5b600260003373ffffffffffffffffffffffffffffffffffffffff1673ffffffffffffffffffffffffffffffffffffffff168152602001908152602001600020600090553373ffffffffffffffffffffffffffffffffffffffff167f4ce7033d118120e254016dccf195288400b28fc8936425acd5f17ce2df3ab708826040518082815260200191505060405180910390a23373ffffffffffffffffffffffffffffffffffffffff166108fc829081150290604051600060405180830381858888f193505050501580156117bc573d6000803e3d6000fd5b5050565b60008073ffffffffffffffffffffffffffffffffffffffff168373ffffffffffffffffffffffffffffffffffffffff1614151515611866576040517f08c379a000000000000000000000000000000000000000000000000000000000815260040180806020018281038252600f8152602001807f496e76616c69642061646472657373000000000000000000000000000000000081525060200191505060405180910390fd5b600082141515156118df576040517f08c379a00000000000000000000000000000000000000000000000000000000081526004018080602001828103825260108152602001807f496e76616c69642070617373776f72640000000000000000000000000000000081525060200191505060405180910390fd5b828230604051602001808473ffffffffffffffffffffffffffffffffffffffff1673ffffffffffffffffffffffffffffffffffffffff166c010000000000000000000000000281526014018381526020018273ffffffffffffffffffffffffffffffffffffffff1673ffffffffffffffffffffffffffffffffffffffff166c01000000000000000000000000028152601401935050505060405160208183030381529060405280519060200120905092915050565b6000809054906101000a900473ffffffffffffffffffffffffffffffffffffffff1673ffffffffffffffffffffffffffffffffffffffff163373ffffffffffffffffffffffffffffffffffffffff16141515611a58576040517f08c379a00000000000000000000000000000000000000000000000000000000081526004018080602001828103825260198152602001807f4f776e6572207065726d697373696f6e2072657175697265640000000000000081525060200191505060405180910390fd5b7f558114f08c3fa972f3c6f08ee953dad136365321ef1df7646cea5054146ef068600060149054906101000a900460ff16826040518083151515158152602001821515151581526020019250505060405180910390a180600060146101000a81548160ff02191690831515021790555050565b60026020528060005260406000206000915090505481565b6000828211151515611b5d576040517f08c379a000000000000000000000000000000000000000000000000000000000815260040180806020018281038252601e8152602001807f536166654d6174683a207375627472616374696f6e206f766572666c6f77000081525060200191505060405180910390fd5b600082840390508091505092915050565b6000808284019050838110151515611bee576040517f08c379a000000000000000000000000000000000000000000000000000000000815260040180806020018281038252601b8152602001807f536166654d6174683a206164646974696f6e206f766572666c6f77000000000081525060200191505060405180910390fd5b809150509291505056fea165627a7a723058200903fb798f6c84a4bd4f80ed06c7c44fb21bc974223395593a2ea6552ea590880029",
  "source": "pragma solidity 0.5.0;\r\nimport \"./Running.sol\";\r\nimport \"./SafeMath.sol\";\r\n\r\ncontract Remittance is Running\r\n{\r\n    using SafeMath for uint256;\r\n    uint public depositFee;\r\n    mapping(address => uint) public fees;\r\n    uint constant MONTH_IN_SECS = 1 * 28 days;\r\n    mapping(bytes32 => Deposit) public deposits;\r\n\r\n    event LogDeposit(address indexed remiter, bytes32 indexed puzzle, uint expires, uint value, uint depositFee);\r\n    event LogTransfer(bytes32 indexed puzzle, address indexed remittant, uint256 amount);\r\n    event LogWithdraw(address indexed remitter, uint amount);\r\n    event LogDepositFee(address indexed remitter, uint oldFee, uint newFee);\r\n    \r\n    struct Deposit\r\n    {\r\n        address remitter;\r\n        uint expires;\r\n        uint value;\r\n    }\r\n\r\n    constructor()\r\n        Running(true)\r\n        public\r\n    {\r\n    }\r\n\r\n    modifier depositIsValid(bytes32 puzzle)\r\n    {\r\n        require(    deposits[puzzle].remitter != address(0x0), 'Deposit is not valid');\r\n        _;\r\n    }\r\n\r\n    modifier depositIsEmpty(bytes32 puzzle)\r\n    {\r\n        require(    deposits[puzzle].remitter == address(0x0), 'Deposit is not empty');\r\n        _;\r\n    }\r\n\r\n    function createPuzzle(address recipient, bytes32 password1) public view returns (bytes32)\r\n    {\r\n        require(recipient != address(0x0), 'Invalid address');\r\n        require(password1 != \"\", 'Invalid password');\r\n\r\n        return keccak256(abi.encodePacked(recipient, password1, address(this)));\r\n    }\r\n\r\n    function setDepositFee(uint _depositFee)\r\n        public\r\n        isOwner\r\n    {\r\n        require(depositFee != _depositFee, 'Values are equal');\r\n        emit LogDepositFee(msg.sender, depositFee, _depositFee);\r\n\r\n        depositFee = _depositFee;\r\n    }\r\n\r\n    function isExpired(bytes32 puzzle)\r\n        public\r\n        view\r\n        depositIsValid(puzzle)\r\n        returns(bool)\r\n    {\r\n        return now > deposits[puzzle].expires;\r\n    }\r\n\r\n    function deposit(bytes32 puzzle, uint timeout)\r\n        public\r\n        payable\r\n        depositIsEmpty(puzzle)\r\n    {\r\n        // Amount deposited to contract, we need something\r\n        require(msg.value > 0, 'Need to deposit something');\r\n        require(timeout > 0 && timeout < MONTH_IN_SECS, 'Timeout needs to be valid');\r\n        require(puzzle != \"\", 'Invalid puzzle');\r\n\r\n        uint depositValue = msg.value;\r\n        if (depositFee < msg.value)\r\n        {\r\n            depositValue = msg.value.sub(depositFee);\r\n            address owner = getOwner();\r\n            fees[owner] = fees[owner].add(depositFee);\r\n        }\r\n\r\n        deposits[puzzle] = Deposit(\r\n                                        {\r\n                                            remitter: msg.sender,\r\n                                            expires: timeout + now,\r\n                                            value: depositValue\r\n                                        }\r\n                                    );\r\n\r\n        emit LogDeposit(msg.sender,\r\n                        puzzle,\r\n                        timeout + now,\r\n                        depositValue,\r\n                        depositFee);\r\n    }\r\n\r\n    function remitterWithdraw(bytes32 puzzle)\r\n        public\r\n        depositIsValid(puzzle)\r\n    {\r\n        require(isExpired(puzzle), 'Deposit is not expired');\r\n\r\n        uint valueToSend = deposits[puzzle].value;\r\n        require(valueToSend > 0, 'Nothing to withdraw');\r\n\r\n        deposits[puzzle].value = 0;\r\n\r\n        emit LogTransfer(   puzzle,\r\n                            msg.sender,\r\n                            valueToSend);\r\n\r\n        msg.sender.transfer(valueToSend);\r\n    }\r\n\r\n    function withdraw(bytes32 _password1)\r\n        public\r\n    {\r\n        bytes32 puzzle = createPuzzle(msg.sender, _password1);\r\n        uint valueToSend = deposits[puzzle].value;\r\n        require(valueToSend > 0, 'No balance available');\r\n        // Clear members except remitter which we use to track used puzzles.\r\n        deposits[puzzle].value = 0;\r\n        deposits[puzzle].expires = 0;\r\n\r\n        emit LogTransfer(   puzzle,\r\n                            msg.sender,\r\n                            valueToSend);\r\n\r\n        msg.sender.transfer(valueToSend);\r\n    }\r\n\r\n    function withdrawDepositFees()\r\n        public\r\n    {\r\n        uint toSend = fees[msg.sender];\r\n        require(toSend > 0, 'No balance to withdraw');\r\n        delete fees[msg.sender];\r\n        emit LogWithdraw(msg.sender, toSend);\r\n        msg.sender.transfer(toSend);\r\n    }\r\n}",
  "sourcePath": "/Users/andy/Documents/GitHub/remittance/contracts/Remittance.sol",
  "compiler": {
    "name": "solc",
    "version": "0.5.0+commit.1d4f565a.Emscripten.clang"
  },
  "schemaVersion": "3.0.3",
  "updatedAt": "2019-05-29T18:49:50.716Z",
  "devdoc": {
    "methods": {}
  },
  "userdoc": {
    "methods": {}
  }
}